:100000000C946C000C94300D0C94300D0C94D507AE
:100010000C94030A0C94300D0C9425060C94300DAE
:100020000C94300D0C94D7090C94300D0C94300DB9
:100030000C94300D0C94300D0C94300D0C94300D4C
:100040000C94300D0C94300D0C94300D0C94300D3C
:100050000C94DD060C94300D0C94AB090C947F09C4
:100060000C9481060C94300D0C94300D0C94300DD2
:100070000C94300D0C9487070C94300D0C94300DBB
:100080000C94300D0C94300D0C9439070C94180816
:100090000C94300D0C94300D0C94300D0C94300DEC
:1000A000280031A8001AC231A83204803204320676
:1000B00000246A32063210803210321200246C3270
:1000C000123218803218321A00246E321A321B8013
:1000D000321B321E0024700011241FBECFEFCDBF93
:1000E000DFE3DEBFE0EAF0E040E017C0B591A591A4
:1000F00035912591059107FD0CC095918591EF01F2
:10010000F92FE82F05900D92A217B307D9F7FE013A
:1001100004C01D92A217B307E1F7E73DF40731F7DA
:0C0120000E9496000C94A80CF894FFCFED
:10012C000E94490980931832909319320E94200C36
:10013C0084EE98E50E9410090E940C0C8F3F2FEF63
:10014C00920729F0809314329093153206C086E3FF
:10015C0091E080931432909315328AE59AE00E94D4
:10016C00050DE0E8F1E086E0808B81E080A788E96E
:10017C009BE00E94FB0C80E098E00E940A0D80E05E
:10018C0090E00E940F0D109212321092133284EFF5
:10019C0091E00E94B30C89EE98E50E94100988EC5E
:1001AC0090E00E94B30C729912C08EEE98E50E94FA
:1001BC00100984EF91E00E94B30C89EE98E50E943F
:1001CC00100988EC90E00E94B30C729BEECF83EF89
:1001DC0098E50E94100988E592E00E94B30C89EE24
:1001EC0098E50E94100988EC90E00E94B30CC4E0E2
:1001FC00D0E080911432909115320E94C40588ECA5
:10020C0090E00E94B30C89EE98E50E94100988ECEE
:10021C0090E00E94B30C219761F784E59CE00E946A
:10022C00140D1092AC311092AD311092AE3110927F
:10023C00AF3166246A94762CC0E1D7E201E010E07D
:10024C000F2EF7E02F2E312C412C512CF02D8091BC
:10025C000E3290910F32009759F4609210327092D6
:10026C00113280911432909115320E94840A05C08B
:10027C00019780930E3290930F32149922C0809183
:10028C001A328823F1F080911B32E82FF0E0EE0F48
:10029C00FF1FE056FE4C20813181209314323093A5
:1002AC0015328F5F837080931B3220931032309302
:1002BC001132C0930E32D0930F3210920C32109236
:1002CC000D3282B1807180931A328091AC31909151
:1002DC00AD31A091AE31B091AF310097A105B10510
:1002EC0061F12091143230911532820F931F8D3CA5
:1002FC0061E0960714F08CEC91E0992314F480E003
:10030C0090E0809314329093153280931032909336
:10031C001132C0930E32D0930F3210920C321092D5
:10032C000D321092AC311092AD311092AE31109260
:10033C00AF31019609F006C106C080911032909140
:10034C001132019641F480911632909117328093BC
:10035C0010329093113240910C3250910D324F5F0C
:10036C005F4F9A013695279536952795ABE7B4E103
:10037C000E94810C969587950F2EF4E68F2EF02D0A
:10038C00889E9001899E300D1124CA01821B930B0B
:10039C0080930C3290930D32892B31F48091103272
:1003AC00909111320E94C405209114323091153273
:1003BC002115310549F4109212321092133280E05B
:1003CC0090E00E940F0D81C0C0901232D090133279
:1003DC00E12CF12C809116329091173282179307F1
:1003EC0078F540E050E049015A01881A990AA108B1
:1003FC00B108C501B40163307105810591053CF468
:10040C00A70196012B5F3F4F4F4F5F4F08C00E94D3
:10041C00440C26E030E040E050E00E94CB0BDA01C7
:10042C00C901813022E09207A105B10514F080E0EA
:10043C0092E080931232909313320E940F0D45C0BC
:10044C002817390708F041C0A0E0B0E0821B930BDD
:10045C00A109B1090397A105B1053CF51C141D04B4
:10046C001E041F042CF567E0C616D104E104F10448
:10047C00B4F0C701B601A20191010E94CB0BC21AC4
:10048C00D30AE40AF50A8CE1C816D104E104F1049C
:10049C007CF021E0C21AD108E108F10809C061E042
:1004AC00C61AD108E108F10803C0C12CD12C760181
:1004BC00D701C601FF201CF480E090E0DC018093A2
:1004CC001232909313320E940F0D72990AC089EE6A
:1004DC0098E50E94100980E090E00E940F0DF894BE
:1004EC00FFCF80911632909117328935924008F4E3
:1004FC00AECE80E090E00E940F0DF89487E08093E0
:10050C001C3288EF98E50E94100988EE93E00E9457
:10051C00B30C89EE98E50E94100988EC90E00E94DB
:10052C00B30C8DEF98E50E94100988EE93E00E94C1
:10053C00B30C89EE98E50E94100988EC90E00E94BB
:0E054C00B30CDFCF00930C3210930D322DCF85
:10055A000F931F93CF93DF9360E074E08CE0FB016D
:10056A00808340E254E0FA01108220E434E081E022
:10057A00F9018083C0E6D4E01882A0E8B4E01C92B6
:10058A0000EA14E0F8011082FB011482FA011482D5
:10059A00F90114821C8214961C921497F801148291
:1005AA0088E0FB01808B818B128A138A148A92E07D
:1005BA00958B168A878BFA01808B818B828B838B32
:1005CA00848B858B168A178AF901108A818B828B14
:1005DA00838B848B858B868B878B188A198A1A8AD8
:1005EA008B8B8C8B8D8B8E8B8F8B50968C9350979D
:1005FA0051968C93519752968C93529753968C930B
:10060A00539754961C92549755961C925597569602
:10061A001C92569757961C92F801808B818B828B7D
:10062A00838B848B858B168A178AE0EEF5E011821C
:10063A001082948315821382128285E39DE080934F
:10064A0002329093033286E39DE0809300329093C6
:10065A00013287E39DE08093FE319093FF3188E376
:10066A009DE08093FC319093FD3189E39DE0809376
:10067A00FA319093FB318AE39DE08093F8319093AD
:10068A00F9318BE39DE08093F6319093F7318CE357
:10069A009DE08093F4319093F5318DE39DE0809352
:1006AA00F2319093F3318EE39DE08093F031909391
:1006BA00F1318FE39DE08093EE319093EF3180E446
:1006CA009DE08093EC319093ED3181E49DE080933D
:1006DA00EA319093EB3182E49DE08093E831909384
:1006EA00E93183E49DE08093E6319093E73184E435
:1006FA009DE08093E4319093E53185E49DE0809319
:10070A00E2319093E33186E49DE08093E031909367
:10071A00E13187E49DE08093DE319093DF3188E414
:10072A009DE08093DC319093DD3189E49DE08093F4
:10073A00DA319093DB318AE49DE08093D83190934B
:10074A00D9318BE49DE08093D6319093D7318CE4F4
:10075A009DE08093D4319093D5318DE49DE08093D0
:10076A00D2319093D3318EE49DE08093D03190932F
:10077A00D1318FE49DE08093CE319093CF3180E5E3
:10078A009DE08093CC319093CD3181E59DE08093BB
:10079A00CA319093CB3182E59DE08093C831909322
:1007AA00C93183E59DE08093C6319093C73184E5D2
:1007BA009DE08093C4319093C53185E59DE0809397
:1007CA00C2319093C33186E59DE08093C031909306
:1007DA00C13187E59DE08093BE319093BF3188E5B2
:1007EA009DE08093BC319093BD3189E59DE0809373
:1007FA00BA319093BB318AE59DE08093B8319093EA
:10080A00B9318BE59DE08093B6319093B7318CE591
:10081A009DE08093B4319093B531DF91CF911F91D0
:04082A000F9108958D
:10082E0010C00E94DC0C58F00E94D50C40F029F448
:10083E005F3F29F00C94F00C51110C94E40C0C94C5
:10084E002D0D0E94F60A68F39923B1F3552391F307
:10085E00951B550BBB27AA2762177307840738F021
:10086E009F5F5F4F220F331F441FAA1FA9F335D07E
:10087E000E2E3AF0E0E832D091505040E695001C32
:10088E00CAF72BD0FE2F29D0660F771F881FBB1FEC
:10089E00261737074807AB07B0E809F0BB0B802DCA
:1008AE00BF01FF2793585F4F3AF09E3F510578F0F6
:1008BE000C94F00C0C94E40C5F3FE4F3983ED4F3EC
:1008CE00869577956795B795F7959F5FC9F7880FCA
:1008DE00911D9695879597F90895E1E0660F771F1C
:1008EE00881FBB1F621773078407BA0720F0621BAD
:0E08FE00730B840BBA0BEE1F88F7E09508957C
:10090C00CF92DF92EF92FF920F931F93CF93DF93CF
:10091C00EB01BC0180E090E00E94980820E030E4FC
:10092C004CE955E40E94260D20E030EC4FE754E4EE
:10093C000E94220D20E030E0A9010E94CF0C6B0137
:10094C007C0120E030E04AE755E40E94190D882331
:10095C00B4F520E030E045E353E4C701B6010E9452
:10096C00220DCC0FDD1FCC0FDD1FC050D84D2881C0
:10097C0039814A815B810E94CE0C6B017C012091F4
:10098C0000283091012840910228509103280E94A0
:10099C00190D1816BCF404E018E2C0E0D0E0219662
:1009AC00F80121913191419151918F01C701B6010B
:1009BC000E94190D18169CF38C2F9D2F05C087EEE5
:1009CC0093E002C080E090E0DF91CF911F910F91F6
:0A09DC00FF90EF90DF90CF90089598
:1009E6000FC00E94D50C38F00E94DC0C20F0952335
:1009F60011F00C94F00C0C942D0D11240C94E40CB5
:100A06000E94F60A70F3959FC1F3950F50E0551FAB
:100A1600629FF001729FBB27F00DB11D639FAA274D
:100A2600F00DB11DAA1F649F6627B00DA11D661F9C
:100A3600829F2227B00DA11D621F739FB00DA11DBD
:100A4600621F839FA00D611D221F749F3327A00D77
:100A5600611D231F849F600D211D822F762F6A2F13
:100A660011249F5750409AF0F1F088234AF0EE0F78
:100A7600FF1FBB1F661F771F881F91505040A9F7A5
:100A86009E3F510580F00C94F00C0C94E40C5F3FF3
:100A9600E4F3983ED4F3869577956795B795F795E1
:100AA600E7959F5FC1F7FE2B880F911D9695879559
:040AB60097F908950F
:100ABA0011C00E94D50C38F00E94DC0C20F039F4E9
:100ACA009F3F19F426F40C942D0D0EF4E095E7FBE4
:100ADA000C94F00CE92F0E94F60A58F3BA17620731
:100AEA0073078407950720F079F4A6F50C94E30CB4
:100AFA000EF4E0950B2EBA2FA02D0B01B90190012F
:100B0A000C01CA01A0011124FF27591B99F0593F72
:100B1A0050F4503E68F11A16F040A22F232F342FBA
:100B2A004427585FF3CF469537952795A795F04008
:100B3A005395C9F77EF41F16BA0B620B730B840B1D
:100B4A00BAF09150A1F0FF0FBB1F661F771F881FD5
:100B5A00C2F70EC0BA0F621F731F841F48F487952D
:100B6A0077956795B795F7959E3F08F0B0CF93951F
:0E0B7A00880F08F09927EE0F9795879508953C
:100B8800AC01E8EAF1E380E28083818383E6838332
:100B98004436510570F09A01369527953695279574
:100BA800ABE7B4E10E94810C96958795805D8093B0
:100BB800A8314A30510528F19A01ADECBCEC0E94ED
:100BC800810CFC01F695E795F695E795F695E7957E
:100BD8009F010E94810C9695879596958795969585
:100BE80087959C01220F331F880F991F880F991F23
:100BF800880F991F820F931FE81BF90BE05DE093A4
:100C0800A9319A01ADECBCEC0E94810C96958795B0
:100C180096958795969587959C01220F331F880F87
:100C2800991F880F991F880F991F820F931F481BC0
:100C3800590B405D4093AA3188EA91E30E9410095C
:020C480008950D
:100C4A001F920F920FB60F9211242F933F934F9337
:100C5A005F936F937F938F939F93AF93BF93EF931A
:100C6A00FF93189B05C0E091FC31F091FD31099585
:100C7A00199B05C0E091FA31F091FB3109951C9B53
:100C8A0005C0E091F831F091F93109951D9B05C035
:100C9A00E091F631F091F73109951E9B05C0E0917C
:100CAA00F431F091F53109951F9B05C0E091F231BD
:100CBA00F091F33109951A9B05C0E091B631F09194
:100CCA00B73109951B9B05C0E091B431F091B5315C
:100CDA0009958FEF83B9FF91EF91BF91AF919F91E2
:100CEA008F917F916F915F914F913F912F910F90CB
:080CFA000FBE0F901F9018952A
:100D02001F920F920FB60F9211242F933F934F937E
:100D12005F936F937F938F939F93AF93BF93EF9361
:100D2200FF93589B05C0E091FE31F091FF31099588
:100D3200599B05C0E091E431F091E53109955A9B48
:100D420005C0E091E231F091E33109955B9B05C06A
:100D5200E091E031F091E13109955C9B05C0E091B1
:100D6200DE31F091DF3109955D9B05C0E091DC3108
:100D7200F091DD3109955E9B05C0E091DA31F09189
:100D8200DB3109955F9B05C0E091D831F091D931F3
:100D920009958FEF8BB9FF91EF91BF91AF919F9121
:100DA2008F917F916F915F914F913F912F910F9012
:080DB2000FBE0F901F90189571
:100DBA001F920F920FB60F9211242F933F934F93C6
:100DCA005F936F937F938F939F93AF93BF93EF93A9
:100DDA00FF93789B05C0E0910232F09103320995A6
:100DEA00799B05C0E0910032F091013209957A9B16
:100DFA0005C0E091D631F091D73109957B9B05C0AA
:100E0A00E091D431F091D53109957C9B05C0E091F0
:100E1A00D231F091D33109957D9B05C0E091D03153
:100E2A00F091D13109957E9B05C0E091CE31F091C8
:100E3A00CF3109957F9B05C0E091CC31F091CD313E
:100E4A0009958FEF8FB9FF91EF91BF91AF919F9164
:100E5A008F917F916F915F914F913F912F910F9059
:080E6A000FBE0F901F901895B8
:100E72001F920F920FB60F9211242F933F934F930D
:100E82005F936F937F938F939F93AF93BF93EF93F0
:100E9200FF93389B05C0E091F031F091F131099553
:100EA200399B05C0E091EE31F091EF3109953A9B03
:100EB20005C0E091EC31F091ED3109953B9B05C005
:100EC200E091EA31F091EB3109953C9B05C0E0914C
:100ED200E831F091E93109953D9B05C0E091E63199
:100EE200F091E73109958FEF87B9FF91EF91BF91AB
:100EF200AF919F918F917F916F915F914F913F91B0
:0C0F02002F910F900FBE0F901F901895BC
:100F0E001F920F920FB60F9211242F933F934F9370
:100F1E005F936F937F938F939F93AF93BF93EF9353
:100F2E00FF93B89B05C0E091C231F091C331099592
:100F3E00B99B05C0E091C031F091C1310995BA9BC2
:100F4E0005C0E091BE31F091BF310995BB9B05C044
:100F5E00E091BC31F091BD310995BC9B05C0E0918B
:100F6E00BA31F091BB310995BD9B05C0E091B83106
:100F7E00F091B93109958FEF87BBFF91EF91BF913A
:100F8E00AF919F918F917F916F915F914F913F9113
:0C0F9E002F910F900FBE0F901F90189520
:100FAA001F920F920FB60F9211242F933F934F93D4
:100FBA005F936F937F938F939F93AF93BF93EF93B7
:100FCA00FF938091420180FF0BC08091430180FF13
:100FDA0007C0E0910A32F0910B32309709F0099577
:100FEA008091420181FF0BC08091430181FF07C0BC
:100FFA00E0910832F0910932309709F0099583E0BF
:10100A0080934301FF91EF91BF91AF919F918F918F
:10101A007F916F915F914F913F912F910F900FBEEA
:06102A000F901F901895C5
:101030001F920F920FB60F9211242F933F934F934D
:101040005F936F937F938F939F93AF93BF93EF9330
:10105000FF93989B05C0E091CA31F091CB3109957F
:10106000999B05C0E091C831F091C93109959A9BCF
:1010700005C0E091C631F091C73109959B9B05C031
:10108000E091C431F091C53109958FEF83BBFF9199
:10109000EF91BF91AF919F918F917F916F915F91F0
:1010A0004F913F912F910F900FBE0F901F90189569
:1010B0000000000000000000000000000000000030
:1010C0000000000000000000000000000000000020
:1010D000000022006D000020390F000010408052F7
:1010E0003F065B4F666D7D077F6F00000048005331
:1010F00000777C395E79713D76301E003800543FB0
:101100007367506D783E0000006E5B3964000F0815
:1011100020777C585E79713D74041E003800545C61
:101120007367506D783E0000006E5B39300F4000F1
:10113000E89409C097FB3EF4909580957095619571
:101140007F4F8F4F9F4F9923A9F0F92F96E9BB2727
:101150009395F695879577956795B795F111F8CFA3
:10116000FAF4BB0F11F460FF1BC06F5F7F4F8F4F0E
:101170009F4F16C0882311F096E911C0772321F004
:101180009EE8872F762F05C0662371F096E8862F9C
:1011900070E060E02AF09A95660F771F881FDAF7F3
:0A11A000880F9695879597F908953A
:1011AA00BF92CF92DF92EF92FF920F931F93CF934A
:1011BA00DF93D82FC8E00F2EF6E0EF2EF4E0FF2ED3
:1011CA00F02D6894DD24D3F8BD2C05E014E0689472
:1011DA00CC24C2F8F701B082D0FD02C0C08202C09E
:1011EA00F801C082D6958AE090E00E94E20BF801ED
:1011FA00D0828AE090E00E94E20BC15059F70E9427
:10120A00AE0ADF91CF911F910F91FF90EF90DF907F
:06121A00CF90BF90089583
:10122000CF93DF93EC010E94630C80911C3288689D
:101230000E94D5080E94790B0E94630C80E40E94F2
:10124000D5080E94790B0E94630C80EC0E94D5089F
:10125000E881F0E0E055FF4A80810E94D508E981ED
:10126000F0E0E055FF4A80810E94D508EA81F0E075
:10127000E055FF4A80810E94D508EB81F0E0E055FF
:10128000FF4A80810E94D5080E94790BDF91CF919F
:021290000895BF
:10129200E0E0F6E091E09083118283E0828380E1D6
:1012A2008093A00082818F7C82838EE1868380E49A
:1012B20083838FE1858382818064828390878385A3
:1012C20080FFFDCF2091100630911106E0E0F1E1A0
:1012D20081A1A0A1281B310987FD3395B0E00E94AE
:1012E200810CDC01CB0180589F4FAF4FBF4F892F3C
:0C12F2009A2FAB2FBB278151914008952B
:1012FE001F920F920FB60F9211242F933F934F937D
:10130E005F936F937F938F939F93AF93BF93EF935F
:10131E00FF9382E080930B06E091B231F091B331EE
:10132E00309709F00995FF91EF91BF91AF919F9181
:10133E008F917F916F915F914F913F912F910F9070
:08134E000FBE0F901F901895CF
:101356001F920F920FB60F9211242F933F934F9324
:101366005F936F937F938F939F93AF93BF93EF9307
:10137600FF9381E080930B06E091B031F091B1319B
:10138600309709F00995FF91EF91BF91AF919F9129
:101396008F917F916F915F914F913F912F910F9018
:0813A6000FBE0F901F90189577
:1013AE001F920F920FB60F9211242F933F934F93CC
:1013BE005F936F937F938F939F93AF93BF93EF93AF
:1013CE00FF93E0910432F0910532309709F00995C0
:1013DE0080E180930B0AFF91EF91BF91AF919F91A6
:1013EE008F917F916F915F914F913F912F910F90C0
:0813FE000FBE0F901F9018951F
:101406001F920F920FB60F9211242F933F934F9373
:101416005F936F937F938F939F93AF93BF93EF9356
:10142600FF93E0910632F0910732309709F0099563
:1014360081E080935301FF91EF91BF91AF919F910E
:101446008F917F916F915F914F913F912F910F9067
:081456000FBE0F901F901895C6
:10145E0040E068ED80E690E00E941E0D41E168EDEF
:10146E0081E690E00E941E0D40E068ED82E690E07D
:10147E000E941E0D40E068ED83E690E00E941E0D76
:10148E0040E068ED80E790E00E941E0D40E068EDC0
:10149E0088E790E00E941E0D40E068ED8CE790E03A
:0614AE000E941E0D0895CE
:1014B400169B14C08091AC319091AD31A091AE31A6
:1014C400B091AF310197A109B1098093AC319093E8
:1014D400AD31A093AE31B093AF3108958091AC316A
:1014E4009091AD31A091AE31B091AF310196A11D73
:1014F400B11D8093AC319093AD31A093AE31B093D4
:04150400AF31089566
:101508000F931F93CF93DF93D82FC92F192F80E004
:1015180094E10E942A0DD81749F06D2F80E094E1DC
:101528000E94BD0C0E94000D8111FCCF81E094E166
:101538000E942A0D181749F06C2F81E094E10E944F
:10154800BD0C0E94000D8111FCCFDF91CF911F913E
:041558000F91089552
:10155C000F931F93CF93DF93D8E0D093060405E04D
:10156C0014E0C4E0F801C083C09302048AE090E068
:10157C000E94E20BF801D0838AE090E00E94E20B1B
:10158C0082B1C09301048AE090E00E94E20BDF91EB
:08159C00CF911F910F910895FA
:1015A400990F0008550FAA0BE0E8FEEF1616170670
:1015B400E807F907C0F012161306E407F50798F0D8
:1015C400621B730B840B950B39F40A2661F0232BF1
:1015D400242B252B21F408950A2609F4A140A6956D
:0815E4008FEF811D811D0895A8
:1015EC0057FD9058440F551F59F05F3F71F04795C8
:1015FC00880F97FB991F61F09F3F79F087950895AD
:10160C00121613061406551FF2CF4695F1DF08C0CB
:10161C00161617061806991FF1CF869571056105E8
:04162C000894089581
:10163000A1E21A2EAA1BBB1BFD010DC0AA1FBB1FD6
:10164000EE1FFF1FA217B307E407F50720F0A21B48
:10165000B30BE40BF50B661F771F881F991F1A94B5
:1016600069F760957095809590959B01AC01BD01DF
:04167000CF01089509
:10167400E0E4F1E081818111FDCFE0E4F1E0148642
:101684001586108611868CEC9CE0828793871782DE
:1016940081E082838583808381898111FDCFE0E4A9
:1016A400F1E081E0828B858B81E6808B80E0089578
:1016B400E0E0FAE010A611A612A613A614A615A639
:1016C40010A211A283E181831282138214821582F3
:1016D400168217821686118680E1828713868EEF22
:0E16E4009FEF86A397A3178681E08083089569
:1016F2000F931F93CF93DF93C6E0D4E008E00883F3
:101702008AE090E00E94E20B14E018838AE090E005
:101712000E94E20BC5E0D4E008838AE090E00E94D8
:0E172200E20B1883DF91CF911F910F91089574
:10173000CF93DF93C0911832D09119320E94F60CEA
:10174000BE010E948604992314F480E090E0883E54
:1017500023E0920714F087EE93E080931632909383
:081760001732DF91CF910895CB
:10176800E0E0F6E081E0868B118291E592831382B6
:101778001482148681878287168215822FEF33E0C0
:0E178800248B358B128A138A808380E00895AB
:10179600052E97FB1EF400940E94C60C57FD07D039
:1017A6000E94180B07FC03D04EF40C94C60C5095FF
:0E17B6004095309521953F4F4F4F5F4F08955E
:1017C4008032910560F09C0143E24A95F1F700C034
:1017D4002052310920323105B8F78F7199270097CB
:0C17E40021F000C000C00197E1F708955B
:1017F000E0E8F1E0108A118A128A138A148A158AA5
:1018000010A211A212A213A214A215A216A217A22C
:08181000168A178A80E0089592
:10181800CF93DF9381E094E10E942A0DC82FD0E096
:10182800DC2FCC2780E094E10E942A0D9E01282B12
:08183800C901DF91CF91089571
:101840000E942F0A0E94AD020E94B40B0E94F80B66
:101850000E94340D0E943A0B0E945A0B0E94EA0C1F
:061860000E94900C0895A7
:10186600092E0394000C11F4882352F0BB0F40F4A8
:10187600BF2B11F460FF04C06F5F7F4F8F4F9F4FE8
:021886000895C3
:10188800DB018F939F930E949D0CBF91AF91A29F04
:10189800800D911DA39F900DB29F900D1124089566
:1018A80090911D3280911C32890F80931C328130B7
:0E18B80011F0873019F4919590931D32089528
:1018C600CF93E5E0F4E088E08083C4E0C0838AE05B
:0E18D60090E00E94E20BC0930604CF910895AB
:1018E400624F4F740020202020004E6F323400538A
:0E18F4004574500068454174004641494C005F
:10190200A29FB001B39FC001A39F700D811D11243E
:0E191200911DB29F700D811D1124911D08952D
:1019200040E068ED80E191E00E941E0DE0E1F1E011
:0A19300012821382789480E008957B
:10193A000E94810CA59F900DB49F900DA49F800DCD
:06194A00911D1124089517
:10195000EC010E945F0D0E945E0DCE010E94600DA1
:06196000CE010E94320DD1
:10196600009739F0E1E4F3E03197F1F700000197D1
:04197600C9F7089510
:10197A00FC01608343E06DE980E090E10E941E0D66
:02198A000895BE
:10198C0090958095709561957F4F8F4F9F4F0895DF
:0E199C005058BB27AA270E945D050C94330CFF
:0E19AA0000240A94161617061806090608955A
:0E19B80000240A94121613061406050608955C
:0E19C600E894BB2766277727CB0197F9089591
:0C19D400E0EAF0E01082118280E008954B
:0C19E00097F99F6780E870E060E00895D0
:0A19EC0080911006909111060895F5
:0A19F6008093B0319093B131089551
:0A1A00008091021086958170089510
:0A1A0A008093F6319093F7310895B0
:0A1A14008093260A9093270A089594
:0A1A1E008093280A9093290A089586
:0A1A28008093063290930732089570
:0A1A32000E94D20A08F48FEF089515
:081A3C00FC0164BF4083089522
:081A44000E9417040C94330CFE
:081A4C000E94F3040C94330C1A
:061A5400FC0180810895F1
:061A5A009FEF80EC0895EF
:041A60000C940000E2
:041A64000E94940048
:021A68000895DF
:021A6A000895DD
:021A6C000895DB
:021A6E000895D9
:021A70000895D7
:021A72000895D5
:021A74000895D3
:021A76000895D1
:021A78000895CF
:021A7A000895CD
:021A7C000895CB
:021A7E000895C9
:021A80000895C7
:021A82000895C5
:021A84000895C3
:021A86000895C1
:021A88000895BF
:021A8A000895BD
:021A8C000895BB
:021A8E000895B9
:021A90000895B7
:021A92000895B5
:021A94000895B3
:021A96000895B1
:021A98000895AF
:021A9A000895AD
:021A9C000895AB
:021A9E000895A9
:021AA0000895A7
:021AA2000895A5
:021AA4000895A3
:021AA6000895A1
:021AA80008959F
:021AAA0008959D
:021AAC0008959B
:021AAE00089599
:021AB000089597
:021AB200089595
:021AB400089593
:021AB600089591
:021AB80008958F
:021ABA0008958D
:021ABC0008958B
:021ABE00089589
:021AC000089587
:101AC2000000000077BE1F3DC1CAA13D46B6F33DEE
:101AD200C1CA213E83C04A3E46B6733EF2D28D3E13
:101AE200D34DA23EB4C8B63E9643CB3E9643CB3EC0
:101AF20077BEDF3E5839F43E1D5A043F8D970E3FA4
:101B0200FED4183F6F12233FDF4F2D3FD9CE373F10
:101B12004A0C423FBA494C3FBA494C3F2B87563F89
:101B22002506613F96436B3F8FC2753F0000803FA1
:101B32007D3F853F355E8A3FB29D8F3F2FDD943FCB
:101B4200E7FB993FE7FB993F643B9F3FE17AA43F64
:101B52005EBAA93F17D9AE3F9318B43F1058B93FA8
:101B62008D97BE3F0AD7C33F8716C93F0456CE3F63
:101B72000456CE3F8195D33FFED4D83F7B14DE3F3F
:101B8200F853E33F7593E83FF2D2ED3F6F12F33F14
:101B9200B072F83F2DB2FD3FD5780140D5780140B3
:101BA20093180440B4C806407368094031080C40D9
:101BB20052B80E4010581140CFF71340F0A716400C
:101BC200AE4719406DE71B406DE71B408D971E40E5
:101BD2004C3721406DE723402B8726404C37294064
:101BE2000AD72B402B872E40E92631400AD73340B3
:101BF200C9763640C9763640E9263940A8C63B4008
:101C0200C9763E4087164140A8C6434066664640B4
:101C120087164940A8C64B4066664E40871651401B
:101C22008716514046B653406666564025065940CF
:101C320046B65B4004565E4025066140E3A563401C
:101C420004566640C3F56840E3A56B40E3A56B40CC
:101C5200A2456E40C3F5704081957340A24576401F
:101C620060E5784081957B403F357E407F6A8040C9
:101C72008FC281406F1283406F1283407F6A84401B
:101C82005EBA85403D0A87404E6288402DB2894047
:101C92000C028B40EC518C40FCA98D40DBF98E404C
:101CA200BA499040BA4990409A99914079E9924054
:101CB200894194406891954048E196402731984087
:101CC20006819940E5D09A40C5209C40A4709D4071
:101CD200A4709D4083C09E406210A0404260A1401B
:101CE20021B0A240CFF7A340AE47A5408D97A640B2
:101CF2006DE7A7404C37A940FA7EAA40FA7EAA4077
:101D0200D9CEAB40B81EAD406666AE4046B6AF40D7
:101D12002506B140D34DB240B29DB34060E5B44018
:101D22003F35B6401F85B7401F85B740CDCCB84080
:101D32007B14BA405A64BB4008ACBC40E7FBBD40D0
:101D42009643BF40448BC04023DBC140D122C340F5
:101D52007F6AC4407F6AC4405EBAC5400C02C74075
:101D6200BA49C8406891C94017D9CA40F628CC4040
:101D7200A470CD4052B8CE400000D040AE47D14012
:101D8200AE47D1405C8FD2400AD7D340B81ED5406F
:101D9200986ED64046B6D740F4FDD840A245DA4008
:101DA200508DDB40FED4DC40AC1CDE40AC1CDE407F
:101DB2005A64DF4008ACE04085EBE1403333E34056
:101DC200E17AE4408FC2E5403D0AE740EC51E84049
:101DD2009A99E94048E1EA4048E1EA40F628EC40B5
:101DE200A470ED4052B8EE400000F040AE47F14022
:101DF2002B87F240D9CEF3408716F540355EF64088
:101E0200E3A5F740E3A5F74091EDF8403F35FA40EE
:101E1200EE7CFB409CC4FC404A0CFE40F853FF4061
:101E2200D34D0041AAF10041819501413F35024164
:101E32003F35024117D90241EE7C0341C5200441DE
:101E42009CC40441736805414A0C064121B0064115
:101E5200F8530741E7FB0741BE9F0841BE9F084177
:101E6200964309416DE70941448B0A411B2F0B41FF
:101E7200F2D20B41C9760C41A01A0D418FC20D411D
:101E820066660E413D0A0F413D0A0F4114AE0F41F5
:101E9200EC511041DBF91041B29D114189411241CF
:101EA20060E51241508D134127311441FED4144193
:101EB200EE7C1541EE7C1541C52016419CC41641AD
:101EC2008B6C17416210184152B81841295C1941B4
:101ED20019041A41F0A71A41DF4F1B41B6F31B4107
:101EE200B6F31B41A69B1C417D3F1D416DE71D4181
:101EF200448B1E4133331F4123DB1F41FA7E2041B5
:101F0200E9262141D9CE2141B0722241B07222414B
:101F1200A01A23418FC223417F6A2441560E2541D4
:101F220046B62541355E26412506274114AE274196
:101F3200EC512841DBF92841DBF92841CBA12941A9
:101F4200BA492A41AAF12A419A992B4189412C4145
:101F520079E92C4168912D4158392E4148E12E41B1
:101F620037892F4137892F412731304117D93041E5
:101F720006813141F6283241E5D03241D5783341EC
:101F8200DD243441CDCC3441BC743541AC1C3641E6
:101F9200AC1C36419CC43641A47037419318384179
:101FA20083C03841736839417B143A416ABC3A4173
:101FB2005A643B414A0C3C4152B83C4152B83C4104
:101FC20042603D4131083E4139B43E41295C3F41C6
:101FD2001904404121B04041105841411904424185
:101FE20008AC42411058434110584341000044415B
:101FF200F0A74441F8534541E7FB4541F0A746416C
:10200200DF4F4741E7FB4741D7A34841DF4F4941F3
:10201200E7FB4941E7FB4941D7A34A41DF4F4B4127
:10202200CFF74B41D7A34C41C74B4D41CFF74D4161
:10203200D7A34E41C74B4F41CFF74F41D7A3504192
:10204200D7A35041C74B5141CFF75141D7A352417A
:10205200C74B5341CFF75341D7A35441C74B5541C7
:10206200CFF75541D7A35641DF4F5741DF4F574175
:10207200CFF75741D7A35841DF4F5941E7FB5941A9
:10208200D7A35A41DF4F5B41E7FB5B41F0A75C41BD
:10209200F8535D41E7FB5D41E7FB5D41F0A75E411F
:1020A200F8535F410000604108AC60411058614143
:1020B2001904624108AC6241105863411904644139
:1020C20021B0644121B06441295C65413108664117
:1020D20039B46641426067414A0C684152B868416E
:1020E2005A64694162106A416ABC6A4173686B4111
:1020F20073686B417B146C4183C06C418B6C6D4186
:1021020093186E419CC46E41A4706F41AC1C704127
:10211200B4C87041BC747141C5207241C52072417E
:10212200CDCC7241D5787341DD247441E5D0744140
:10213200EE7C7541F6287641FED4764106817741E0
:102142000E2D78412FDD78412FDD78413789794195
:102152003F357A4148E17A41508D7B4158397C4183
:1021620060E57C4181957D4189417E4191ED7E41D1
:102172009A997F419A997F41D1228041D5788041B5
:10218200E5D08041E9268141EE7C8141F2D2814154
:10219200F6288241068182410AD782410E2D83416F
:1021A2000E2D83411283834123DB834127318441F6
:1021B2002B8784412FDD84413F358541448B854106
:1021C20048E18541583986415C8F86415C8F864162
:1021D20060E58641643B87417593874179E9874190
:1021E2007D3F88418D97884191ED88419643894191
:1021F200A69B8941AAF18941AAF18941AE478A4148
:10220200BE9F8A41C3F58A41D34D8B41D7A38B41EF
:10221200DBF98B41EC518C41F0A78C41F4FD8C41F0
:1022220004568D4104568D4108AC8D4119048E41EE
:102232001D5A8E412DB28E4131088F41355E8F413C
:1022420046B68F414A0C90415A6490415EBA904121
:102252005EBA90416F1291417368914177BE91418C
:10226200871692418B6C92419CC49241A01A934171
:10227200B0729341B4C89341C5209441C5209441A2
:10228200C9769441D9CE9441DD249541EE7C9541A5
:10229200F2D29541022B96410681964117D9964179
:1022A2001B2F97412B8797412B8797412FDD974112
:1022B2003F359841448B984154E39841643B99419E
:1022C2006891994179E999417D3F9A418D979A4167
:1022D20091ED9A4191ED9A41A2459B41A69B9B416A
:1022E200B6F39B41C74B9C41CBA19C41DBF99C417E
:1022F200DF4F9D41F0A79D4100009E4104569E4143
:1023020004569E4114AE9E4119049F41295C9F418F
:102312002DB29F413D0AA0414E62A04152B8A04158
:102322006210A1416666A14177BEA14177BEA1417B
:102332008716A2418B6CA2419CC4A241AC1CA34152
:10234200B072A341C1CAA341C520A441D578A4411A
:10235200E5D0A441E926A541E926A541FA7EA54199
:102362000AD7A5410E2DA6411F85A64123DBA64112
:102372003333A741448BA74148E1A7415839A841CB
:102382006891A8416891A8416DE7A8417D3FA941A4
:102392008D97A94191EDA941A245AA41A69BAA41C7
:1023A200B6F3AA41C74BAB41CBA1AB41DBF9AB4181
:1023B200DBF9AB41EC51AC41F0A7AC410000AD41BF
:1023C2001058AD4114AEAD412506AE41355EAE4169
:1023D20039B4AE414A0CAF415A64AF415A64AF417D
:1023E2005EBAAF416F12B0417F6AB04183C0B04163
:1023F2009318B141986EB141A8C6B141B81EB2411D
:10240200BC74B241CDCCB241CDCCB241DD24B3419A
:10241200E17AB341F2D2B341022BB4410681B44115
:1024220017D9B4412731B5412B87B5413BDFB541BF
:102432003F35B6413F35B641508DB64160E5B641B4
:10244200643BB7417593B74185EBB7418941B841C8
:102452009A99B8419EEFB841AE47B9417DFFC74254
:0824620036014A015E0172011E
:02246A005D0D06
:02246C00FFFF70
:02246E00190053
:01247000016A
:012471000763
:01247200FF6A
:02000004008278
:090000000040020000C8070000E6
:00000001FF
