:100000000C946C000C94220D0C94220D0C94EE07B1
:100010000C941C0A0C94220D0C943E060C94220D98
:100020000C94220D0C94F0090C94220D0C94220DCA
:100030000C94220D0C94220D0C94220D0C94220D84
:100040000C94220D0C94220D0C94220D0C94220D74
:100050000C94F6060C94220D0C94C4090C94980987
:100060000C949A060C94220D0C94220D0C94220DE3
:100070000C94220D0C94A0070C94220D0C94220DCC
:100080000C94220D0C94220D0C9452070C94310800
:100090000C94220D0C94220D0C94220D0C94220D24
:1000A000280031A8001AA631A83204803204320692
:1000B00000244E32063210803210321200245032A8
:1000C000123218803218321A002452321A321B802F
:1000D000321B321E0024540011241FBECFEFCDBFAF
:1000E000DFE3DEBFE0EAF0E040E017C0B591A591A4
:1000F00035912591059107FD0CC095918591EF01F2
:10010000F92FE82F05900D92A217B307D9F7FE013A
:1001100004C01D92A217B307E1F7E73DF40731F7DA
:0C0120000E9496000C948F0CF894FFCF06
:10012C000E94620980931832909319320E94090C34
:10013C0082EB98E50E9429090E94F50B8F3F2FEF67
:10014C00920729F0809314329093153206C086E3FF
:10015C0091E0809314329093153283E79AE00E94D9
:10016C00F30C80E098E00E94F80C80E090E00E9494
:10017C00FD0C109212321092133284EF91E00E9417
:10018C009A0C87EB98E50E94290988EC90E00E9474
:10019C009A0C729912C08CEB98E50E94290984EF95
:1001AC0091E00E949A0C87EB98E50E94290988EC53
:1001BC0090E00E949A0C729BEECF81EC98E50E9425
:1001CC00290988E592E00E949A0C87EB98E50E9439
:1001DC00290988EC90E00E949A0CC4E0D0E0809150
:1001EC001432909115320E94DD0588EC90E00E944B
:1001FC009A0C87EB98E50E94290988EC90E00E9404
:10020C009A0C219761F78BE39CE00E94020D1092EF
:10021C00AC311092AD311092AE311092AF310FEF74
:10022C001FEFC0E1D7E20F2EF3E02F2EF02D0F2E93
:10023C00F4E6BF2EF02D312C6894882481F8912C93
:10024C00A12C80910E3290910F32009759F40093AB
:10025C0010321093113280911432909115320E9409
:10026C009D0A05C0019780930E3290930F3214991A
:10027C0022C080911A328823F1F080911B32E82F32
:10028C00F0E0EE0FFF1FE056FE4C208131812093F1
:10029C001432309315328F5F837080931B3220930E
:1002AC00103230931132C0930E32D0930F32109221
:1002BC000C3210920D3282B1807180931A3280917F
:1002CC00AC319091AD31A091AE31B091AF3100977E
:1002DC00A105B10541F12091143230911532820FF4
:1002EC00931F8D3C21E0920714F08CEC91E0992344
:1002FC0014F480E090E08093143290931532809344
:10030C00103290931132C0930E32D0930F32109260
:10031C000C3210920D321092AC311092AD31109211
:10032C00AE311092AF3180E090E00E94FD0C80E085
:10033C000E94D10C0E940C0D8823E1F3E09018323E
:10034C00F09019320E94E90CB7010E949F04992386
:10035C0014F480E090E0883E23E0920714F087EEDE
:10036C00922D809316329093173280911232909185
:10037C0013320E94FD0C8091103290911132019633
:10038C0041F48091163290911732809310329093F1
:10039C00113240910C3250910D324F5F5F4F9A01E8
:1003AC003695279536952795ABE7B4E10E94680CF6
:1003BC0096958795B89E9001B99E300D1124CA016F
:1003CC00821B930B80930C3290930D32892B31F45A
:1003DC0080911032909111320E94DD0520911432DF
:1003EC00309115322115310549F4109212321092C8
:1003FC00133280E090E00E94FD0C83C0C09012325A
:10040C00D0901332E12CF12C80911632909117324E
:10041C008217930778F540E050E029013A01481A19
:10042C00590A61087108C301B20163307105810575
:10043C0091053CF4A70196012B5F3F4F4F4F5F4F47
:10044C0008C00E942B0C26E030E040E050E00E94F7
:10045C00C80BDA01C901813022E09207A105B10570
:10046C0014F0832D982D80931232909313320E94A6
:10047C00FD0C47C02817390708F043C0A0E0B0E0D6
:10048C00821B930BA109B1090397A105B1054CF58A
:10049C001C141D041E041F043CF587E0C816D1046F
:1004AC00E104F104C4F0C701B60127E030E040E0FC
:1004BC0050E00E94C80BC21AD30AE40AF50A2CE1D8
:1004CC00C216D104E104F1047CF081E0C81AD10811
:1004DC00E108F10809C021E0C21AD108E108F108CD
:1004EC0003C0C12CD12C7601D701C601FF201CF40E
:1004FC0080E090E0DC0180931232909313320E94E2
:10050C00FD0C72990BC087EB98E50E94290980E0DD
:10051C0090E00E94FD0C0E94D70CFFCF8091163208
:10052C00909117328935924008F48BCE80E090E0A0
:10053C000E94FD0C0E94D70C87E080931C3286EC45
:10054C0098E50E94290988EE93E00E949A0C87EBAB
:10055C0098E50E94290988EC90E00E949A0C8BEC9B
:10056C0098E50E94290988EE93E00E949A0C87EB8B
:10057C0098E50E94290988EC90E00E949A0CDFCF44
:10058C000F931F93CF93DF9360E074E08CE0FB013B
:10059C00808340E254E0FA01108220E434E081E0F0
:1005AC00F9018083C0E6D4E01882A0E8B4E01C9284
:1005BC0000EA14E0F8011082FB011482FA011482A3
:1005CC00F90114821C8214961C921497F80114825F
:1005DC0088E0FB01808B818B128A138A148A92E04B
:1005EC00958B168A878BFA01808B818B828B838B00
:1005FC00848B858B168A178AF901108A818B828BE2
:10060C00838B848B858B868B878B188A198A1A8AA5
:10061C008B8B8C8B8D8B8E8B8F8B50968C9350976A
:10062C0051968C93519752968C93529753968C93D8
:10063C00539754961C92549755961C9255975696D0
:10064C001C92569757961C92F801808B818B828B4B
:10065C00838B848B858B168A178AE0EEF5E01182EA
:10066C001082948315821382128287E29DE080931C
:10067C0002329093033288E29DE080930032909393
:10068C00013289E29DE08093FE319093FF318AE242
:10069C009DE08093FC319093FD318BE29DE0809343
:1006AC00FA319093FB318CE29DE08093F83190937A
:1006BC00F9318DE29DE08093F6319093F7318EE223
:1006CC009DE08093F4319093F5318FE29DE080931F
:1006DC00F2319093F33180E39DE08093F03190936D
:1006EC00F13181E39DE08093EE319093EF3182E321
:1006FC009DE08093EC319093ED3183E39DE080930A
:10070C00EA319093EB3184E39DE08093E831909350
:10071C00E93185E39DE08093E6319093E73186E300
:10072C009DE08093E4319093E53187E39DE08093E5
:10073C00E2319093E33188E39DE08093E031909334
:10074C00E13189E39DE08093DE319093DF318AE3E0
:10075C009DE08093DC319093DD318BE39DE08093C1
:10076C00DA319093DB318CE39DE08093D831909318
:10077C00D9318DE39DE08093D6319093D7318EE3C0
:10078C009DE08093D4319093D5318FE39DE080939D
:10079C00D2319093D33180E49DE08093D03190930B
:1007AC00D13181E49DE08093CE319093CF3182E4BE
:1007BC009DE08093CC319093CD3183E49DE0809388
:1007CC00CA319093CB3184E49DE08093C8319093EF
:1007DC00C93185E49DE08093C6319093C73186E49E
:1007EC009DE08093C4319093C53187E49DE0809364
:1007FC00C2319093C33188E49DE08093C0319093D3
:10080C00C13189E49DE08093BE319093BF318AE47D
:10081C009DE08093BC319093BD318BE49DE080933F
:10082C00BA319093BB318CE49DE08093B8319093B6
:10083C00B9318DE49DE08093B6319093B7318EE45D
:10084C009DE08093B4319093B531DF91CF911F919E
:04085C000F9108955B
:1008600010C00E94C30C58F00E94BC0C40F029F448
:100870005F3F29F00C94E30C51110C94CB0C0C94B9
:100880001F0D0E940F0B68F39923B1F3552391F3C9
:10089000951B550BBB27AA2762177307840738F0EF
:1008A0009F5F5F4F220F331F441FAA1FA9F335D04C
:1008B0000E2E3AF0E0E832D091505040E695001C00
:1008C000CAF72BD0FE2F29D0660F771F881FBB1FBA
:1008D000261737074807AB07B0E809F0BB0B802D98
:1008E000BF01FF2793585F4F3AF09E3F510578F0C4
:1008F0000C94E30C0C94CB0C5F3FE4F3983ED4F3E0
:10090000869577956795B795F7959F5FC9F7880F97
:10091000911D9695879597F90895E1E0660F771FE9
:10092000881FBB1F621773078407BA0720F0621B7A
:0E093000730B840BBA0BEE1F88F7E095089549
:10093E00CF92DF92EF92FF920F931F93CF93DF939D
:10094E00EB01BC0180E090E00E94B10820E030E4B1
:10095E004CE955E40E94180D20E030EC4FE754E4CA
:10096E000E94140D20E030E0A9010E94B60C6B012C
:10097E007C0120E030E04AE755E40E94070D882311
:10098E00B4F520E030E045E353E4C701B6010E9420
:10099E00140DCC0FDD1FCC0FDD1FC050D84D28819C
:1009AE0039814A815B810E94B50C6B017C012091DB
:1009BE0000283091012840910228509103280E946E
:1009CE00070D1816BCF404E018E2C0E0D0E0219642
:1009DE00F80121913191419151918F01C701B601D9
:1009EE000E94070D18169CF38C2F9D2F05C087EEC5
:1009FE0093E002C080E090E0DF91CF911F910F91C4
:0A0A0E00FF90EF90DF90CF90089565
:100A18000FC00E94BC0C38F00E94C30C20F0952334
:100A280011F00C94E30C0C941F0D11240C94CB0CB6
:100A38000E940F0B70F3959FC1F3950F50E0551F5F
:100A4800629FF001729FBB27F00DB11D639FAA271B
:100A5800F00DB11DAA1F649F6627B00DA11D661F6A
:100A6800829F2227B00DA11D621F739FB00DA11D8B
:100A7800621F839FA00D611D221F749F3327A00D45
:100A8800611D231F849F600D211D822F762F6A2FE1
:100A980011249F5750409AF0F1F088234AF0EE0F46
:100AA800FF1FBB1F661F771F881F91505040A9F773
:100AB8009E3F510580F00C94E30C0C94CB0C5F3FE7
:100AC800E4F3983ED4F3869577956795B795F795AF
:100AD800E7959F5FC1F7FE2B880F911D9695879527
:040AE80097F90895DD
:100AEC0011C00E94BC0C38F00E94C30C20F039F4E9
:100AFC009F3F19F426F40C941F0D0EF4E095E7FBC0
:100B0C000C94E30CE92F0E940F0B58F3BA176207F1
:100B1C0073078407950720F079F4A6F50C94CA0C9A
:100B2C000EF4E0950B2EBA2FA02D0B01B9019001FC
:100B3C000C01CA01A0011124FF27591B99F0593F40
:100B4C0050F4503E68F11A16F040A22F232F342F88
:100B5C004427585FF3CF469537952795A795F040D6
:100B6C005395C9F77EF41F16BA0B620B730B840BEB
:100B7C00BAF09150A1F0FF0FBB1F661F771F881FA3
:100B8C00C2F70EC0BA0F621F731F841F48F48795FB
:100B9C0077956795B795F7959E3F08F0B0CF9395ED
:0E0BAC00880F08F09927EE0F9795879508950A
:100BBA00AC01E8EAF1E380E28083818383E6838300
:100BCA004436510570F09A01369527953695279542
:100BDA00ABE7B4E10E94680C96958795805D809397
:100BEA00A8314A30510528F19A01ADECBCEC0E94BB
:100BFA00680CFC01F695E795F695E795F695E79565
:100C0A009F010E94680C969587959695879596956B
:100C1A0087959C01220F331F880F991F880F991FF0
:100C2A00880F991F820F931FE81BF90BE05DE09371
:100C3A00A9319A01ADECBCEC0E94680C9695879597
:100C4A0096958795969587959C01220F331F880F55
:100C5A00991F880F991F880F991F820F931F481B8E
:100C6A00590B405D4093AA3188EA91E30E94290911
:020C7A000895DB
:100C7C001F920F920FB60F9211242F933F934F9305
:100C8C005F936F937F938F939F93AF93BF93EF93E8
:100C9C00FF93189B05C0E091FC31F091FD31099553
:100CAC00199B05C0E091FA31F091FB3109951C9B21
:100CBC0005C0E091F831F091F93109951D9B05C003
:100CCC00E091F631F091F73109951E9B05C0E0914A
:100CDC00F431F091F53109951F9B05C0E091F2318B
:100CEC00F091F33109951A9B05C0E091B631F09162
:100CFC00B73109951B9B05C0E091B431F091B5312A
:100D0C0009958FEF83B9FF91EF91BF91AF919F91AF
:100D1C008F917F916F915F914F913F912F910F9098
:080D2C000FBE0F901F901895F7
:100D34001F920F920FB60F9211242F933F934F934C
:100D44005F936F937F938F939F93AF93BF93EF932F
:100D5400FF93589B05C0E091FE31F091FF31099556
:100D6400599B05C0E091E431F091E53109955A9B16
:100D740005C0E091E231F091E33109955B9B05C038
:100D8400E091E031F091E13109955C9B05C0E0917F
:100D9400DE31F091DF3109955D9B05C0E091DC31D6
:100DA400F091DD3109955E9B05C0E091DA31F09157
:100DB400DB3109955F9B05C0E091D831F091D931C1
:100DC40009958FEF8BB9FF91EF91BF91AF919F91EF
:100DD4008F917F916F915F914F913F912F910F90E0
:080DE4000FBE0F901F9018953F
:100DEC001F920F920FB60F9211242F933F934F9394
:100DFC005F936F937F938F939F93AF93BF93EF9377
:100E0C00FF93789B05C0E0910232F0910332099573
:100E1C00799B05C0E0910032F091013209957A9BE3
:100E2C0005C0E091D631F091D73109957B9B05C077
:100E3C00E091D431F091D53109957C9B05C0E091BE
:100E4C00D231F091D33109957D9B05C0E091D03121
:100E5C00F091D13109957E9B05C0E091CE31F09196
:100E6C00CF3109957F9B05C0E091CC31F091CD310C
:100E7C0009958FEF8FB9FF91EF91BF91AF919F9132
:100E8C008F917F916F915F914F913F912F910F9027
:080E9C000FBE0F901F90189586
:100EA4001F920F920FB60F9211242F933F934F93DB
:100EB4005F936F937F938F939F93AF93BF93EF93BE
:100EC400FF93389B05C0E091F031F091F131099521
:100ED400399B05C0E091EE31F091EF3109953A9BD1
:100EE40005C0E091EC31F091ED3109953B9B05C0D3
:100EF400E091EA31F091EB3109953C9B05C0E0911A
:100F0400E831F091E93109953D9B05C0E091E63166
:100F1400F091E73109958FEF87B9FF91EF91BF9178
:100F2400AF919F918F917F916F915F914F913F917D
:0C0F34002F910F900FBE0F901F9018958A
:100F40001F920F920FB60F9211242F933F934F933E
:100F50005F936F937F938F939F93AF93BF93EF9321
:100F6000FF93B89B05C0E091C231F091C331099560
:100F7000B99B05C0E091C031F091C1310995BA9B90
:100F800005C0E091BE31F091BF310995BB9B05C012
:100F9000E091BC31F091BD310995BC9B05C0E09159
:100FA000BA31F091BB310995BD9B05C0E091B831D4
:100FB000F091B93109958FEF87BBFF91EF91BF9108
:100FC000AF919F918F917F916F915F914F913F91E1
:0C0FD0002F910F900FBE0F901F901895EE
:100FDC001F920F920FB60F9211242F933F934F93A2
:100FEC005F936F937F938F939F93AF93BF93EF9385
:100FFC00FF938091420180FF0BC08091430180FFE1
:10100C0007C0E0910A32F0910B32309709F0099544
:10101C008091420181FF0BC08091430181FF07C089
:10102C00E0910832F0910932309709F0099583E08C
:10103C0080934301FF91EF91BF91AF919F918F915D
:10104C007F916F915F914F913F912F910F900FBEB8
:06105C000F901F90189593
:101062001F920F920FB60F9211242F933F934F931B
:101072005F936F937F938F939F93AF93BF93EF93FE
:10108200FF93989B05C0E091CA31F091CB3109954D
:10109200999B05C0E091C831F091C93109959A9B9D
:1010A20005C0E091C631F091C73109959B9B05C0FF
:1010B200E091C431F091C53109958FEF83BBFF9167
:1010C200EF91BF91AF919F918F917F916F915F91BE
:1010D2004F913F912F910F900FBE0F901F90189537
:1010E20000000000000000000000000000000000FE
:1010F20000000000000000000000000000000000EE
:10110200000022006D000020390F000010408052C4
:101112003F065B4F666D7D077F6F000000480053FE
:1011220000777C395E79713D76301E003800543F7D
:101132007367506D783E0000006E5B3964000F08E3
:1011420020777C585E79713D74041E003800545C2F
:101152007367506D783E0000006E5B39300F4000BF
:10116200E89409C097FB3EF490958095709561953F
:101172007F4F8F4F9F4F9923A9F0F92F96E9BB27F5
:101182009395F695879577956795B795F111F8CF71
:10119200FAF4BB0F11F460FF1BC06F5F7F4F8F4FDC
:1011A2009F4F16C0882311F096E911C0772321F0D2
:1011B2009EE8872F762F05C0662371F096E8862F6A
:1011C20070E060E02AF09A95660F771F881FDAF7C1
:0A11D200880F9695879597F9089508
:1011DC00BF92CF92DF92EF92FF920F931F93CF9318
:1011EC00DF93D82FC8E00F2EF6E0EF2EF4E0FF2EA1
:1011FC00F02D6894DD24D3F8BD2C05E014E0689440
:10120C00CC24C2F8F701B082D0FD02C0C08202C06B
:10121C00F801C082D6958AE090E00E94DF0BF801BD
:10122C00D0828AE090E00E94DF0BC15059F70E94F7
:10123C00C70ADF91CF911F910F91FF90EF90DF9034
:06124C00CF90BF90089551
:10125200CF93DF93EC010E944A0C80911C32886884
:101262000E94EE080E94920B0E944A0C80E40E94A7
:10127200EE080E94920B0E944A0C80EC0E94EE083B
:10128200E881F0E0EE51FF4A80810E94EE08E98198
:10129200F0E0EE51FF4A80810E94EE08EA81F0E020
:1012A200EE51FF4A80810E94EE08EB81F0E0EE51A0
:1012B200FF4A80810E94EE080E94920BDF91CF913B
:0212C20008958D
:1012C400E0E0F6E091E09083118283E0828380E1A4
:1012D4008093A00082818F7C82838EE1868380E468
:1012E40083838FE185838281806482839087838571
:1012F40080FFFDCF2091100630911106E0E0F1E16E
:1013040081A1A0A1281B310987FD3395B0E00E947B
:10131400680CDC01CB0180589F4FAF4FBF4F892F22
:0C1324009A2FAB2FBB27815191400895F8
:101330001F920F920FB60F9211242F933F934F934A
:101340005F936F937F938F939F93AF93BF93EF932D
:10135000FF9382E080930B06E091B231F091B331BC
:10136000309709F00995FF91EF91BF91AF919F914F
:101370008F917F916F915F914F913F912F910F903E
:081380000FBE0F901F9018959D
:101388001F920F920FB60F9211242F933F934F93F2
:101398005F936F937F938F939F93AF93BF93EF93D5
:1013A800FF9381E080930B06E091B031F091B13169
:1013B800309709F00995FF91EF91BF91AF919F91F7
:1013C8008F917F916F915F914F913F912F910F90E6
:0813D8000FBE0F901F90189545
:1013E0001F920F920FB60F9211242F933F934F939A
:1013F0005F936F937F938F939F93AF93BF93EF937D
:10140000FF93E0910432F0910532309709F009958D
:1014100080E180930B0AFF91EF91BF91AF919F9173
:101420008F917F916F915F914F913F912F910F908D
:081430000FBE0F901F901895EC
:101438001F920F920FB60F9211242F933F934F9341
:101448005F936F937F938F939F93AF93BF93EF9324
:10145800FF93E0910632F0910732309709F0099531
:1014680081E080935301FF91EF91BF91AF919F91DC
:101478008F917F916F915F914F913F912F910F9035
:081488000FBE0F901F90189594
:1014900040E068ED80E690E00E94100D41E168EDCB
:1014A00081E690E00E94100D40E068ED82E690E059
:1014B0000E94100D40E068ED83E690E00E94100D60
:1014C00040E068ED80E790E00E94100D40E068ED9C
:1014D00088E790E00E94100D40E068ED8CE790E016
:0614E0000E94100D0895AA
:1014E600169B14C08091AC319091AD31A091AE3174
:1014F600B091AF310197A109B1098093AC319093B6
:10150600AD31A093AE31B093AF3108958091AC3137
:101516009091AD31A091AE31B091AF310196A11D40
:10152600B11D8093AC319093AD31A093AE31B093A1
:04153600AF31089534
:10153A000F931F93CF93DF93D82FC92F192F80E0D2
:10154A0094E10E941C0DD81749F06D2F80E094E1B8
:10155A000E94A40C0E94EE0C8111FCCF81E094E160
:10156A000E941C0D181749F06C2F81E094E10E942B
:10157A00A40C0E94EE0C8111FCCFDF91CF911F9138
:04158A000F91089520
:10158E000F931F93CF93DF93D8E0D093060405E01B
:10159E0014E0C4E0F801C083C09302048AE090E036
:1015AE000E94DF0BF801D0838AE090E00E94DF0BEF
:1015BE0082B1C09301048AE090E00E94DF0BDF91BC
:0815CE00CF911F910F910895C8
:1015D600990F0008550FAA0BE0E8FEEF161617063E
:1015E600E807F907C0F012161306E407F50798F0A6
:1015F600621B730B840B950B39F40A2661F0232BBF
:10160600242B252B21F408950A2609F4A140A6953A
:081616008FEF811D811D089575
:10161E0057FD9058440F551F59F05F3F71F0479595
:10162E00880F97FB991F61F09F3F79F0879508957A
:10163E00121613061406551FF2CF4695F1DF08C099
:10164E00161617061806991FF1CF869571056105B6
:04165E00089408954F
:10166200A1E21A2EAA1BBB1BFD010DC0AA1FBB1FA4
:10167200EE1FFF1FA217B307E407F50720F0A21B16
:10168200B30BE40BF50B661F771F881F991F1A9483
:1016920069F760957095809590959B01AC01BD01AD
:0416A200CF010895D7
:1016A600E0E4F1E081818111FDCFE0E4F1E0148610
:1016B6001586108611868CEC9CE0828793871782AC
:1016C60081E082838583808381898111FDCFE0E477
:1016D600F1E081E0828B858B81E6808B80E0089546
:1016E600E0E0FAE010A611A612A613A614A615A607
:1016F60010A211A283E181831282138214821582C1
:10170600168217821686118680E1828713868EEFEF
:0E1716009FEF86A397A3178681E08083089536
:101724000F931F93CF93DF93C6E0D4E008E00883C0
:101734008AE090E00E94DF0B14E018838AE090E0D6
:101744000E94DF0BC5E0D4E008838AE090E00E94A9
:0E175400DF0B1883DF91CF911F910F91089545
:10176200E0E0F6E081E0868B118291E592831382BC
:101772001482148611861286168215822FEF33E0A8
:0E178200248B358B128A138A808380E00895B1
:10179000052E97FB1EF400940E94AD0C57FD07D058
:1017A0000E94310B07FC03D04EF40C94AD0C509505
:0E17B0004095309521953F4F4F4F5F4F089564
:1017BE008032910560F09C0143E24A95F1F700C03A
:1017CE002052310920323105B8F78F7199270097D1
:0C17DE0021F000C000C00197E1F7089561
:1017EA00CF93DF9381E094E10E941C0DC82FD0E0D3
:1017FA00DC2FCC2780E094E10E941C0D9E01282B4F
:08180A00C901DF91CF9108959F
:101812000E94480A0E94C6020E94B10B0E94260D35
:101822000E94530B0E94730B0E94DD0C0E94770CE6
:02183200089517
:10183400092E0394000C11F4882352F0BB0F40F4DA
:10184400BF2B11F460FF04C06F5F7F4F8F4F9F4F1A
:021854000895F5
:10185600DB018F939F930E94840CBF91AF91A29F4F
:10186600800D911DA39F900DB29F900D1124089598
:1018760090911D3280911C32890F80931C328130E9
:0E18860011F0873019F4919590931D3208955A
:10189400CF93E5E0F4E088E08083C4E0C0838AE08D
:0E18A40090E00E94DF0BC0930604CF910895E0
:1018B200624F4F740020202020004E6F32340053BC
:0E18C2004574500068454174004641494C0091
:1018D000A29FB001B39FC001A39F700D811D112471
:0E18E000911DB29F700D811D1124911D089560
:1018EE0040E068ED80E191E00E94100DE0E1F1E052
:0A18FE0012821382789480E00895AE
:101908000E94680CA59F900DB49F900DA49F800D18
:06191800911D1124089549
:10191E00EC010E94510D0E94500DCE010E94520DFD
:06192E00CE010E94240D11
:10193400009739F0E1E4F3E03197F1F70000019703
:04194400C9F7089542
:10194800FC01608343E06DE980E090E10E94100DA6
:021958000895F0
:10195A0090958095709561957F4F8F4F9F4F089511
:0E196A005058BB27AA270E9476050C941A0C31
:0E19780000240A94161617061806090608958C
:0E19860000240A94121613061406050608958E
:0E199400E894BB2766277727CB0197F90895C3
:0C19A200E0E0F6E0868381E08087089595
:0C19AE00E0E4F1E082898E7F828B0895D6
:0C19BA00E0EAF0E01082118280E0089565
:0C19C60097F99F6780E870E060E00895EA
:0A19D200809110069091110608950F
:0A19DC008091021086958170089535
:0A19E6008093F6319093F7310895D5
:0A19F0008093260A9093270A0895B9
:0A19FA008093280A9093290A0895AB
:0A1A04008093063290930732089594
:0A1A0E000E94EB0A08F48FEF089520
:081A180080910B068170089516
:081A2000FC0164BF408308953E
:081A28000E9430040C941A0C1A
:081A30000E940C050C941A0C35
:061A3800FC01808108950D
:061A3E009FEF80EC08950B
:041A44000C940000FE
:041A48000E94940064
:021A4C000895FB
:021A4E000895F9
:021A50000895F7
:021A52000895F5
:021A54000895F3
:021A56000895F1
:021A58000895EF
:021A5A000895ED
:021A5C000895EB
:021A5E000895E9
:021A60000895E7
:021A62000895E5
:021A64000895E3
:021A66000895E1
:021A68000895DF
:021A6A000895DD
:021A6C000895DB
:021A6E000895D9
:021A70000895D7
:021A72000895D5
:021A74000895D3
:021A76000895D1
:021A78000895CF
:021A7A000895CD
:021A7C000895CB
:021A7E000895C9
:021A80000895C7
:021A82000895C5
:021A84000895C3
:021A86000895C1
:021A88000895BF
:021A8A000895BD
:021A8C000895BB
:021A8E000895B9
:021A90000895B7
:021A92000895B5
:021A94000895B3
:021A96000895B1
:021A98000895AF
:021A9A000895AD
:021A9C000895AB
:021A9E000895A9
:021AA0000895A7
:021AA2000895A5
:021AA4000895A3
:101AA6000000000077BE1F3DC1CAA13D46B6F33D0A
:101AB600C1CA213E83C04A3E46B6733EF2D28D3E2F
:101AC600D34DA23EB4C8B63E9643CB3E9643CB3EDC
:101AD60077BEDF3E5839F43E1D5A043F8D970E3FC0
:101AE600FED4183F6F12233FDF4F2D3FD9CE373F2D
:101AF6004A0C423FBA494C3FBA494C3F2B87563FA6
:101B06002506613F96436B3F8FC2753F0000803FBD
:101B16007D3F853F355E8A3FB29D8F3F2FDD943FE7
:101B2600E7FB993FE7FB993F643B9F3FE17AA43F80
:101B36005EBAA93F17D9AE3F9318B43F1058B93FC4
:101B46008D97BE3F0AD7C33F8716C93F0456CE3F7F
:101B56000456CE3F8195D33FFED4D83F7B14DE3F5B
:101B6600F853E33F7593E83FF2D2ED3F6F12F33F30
:101B7600B072F83F2DB2FD3FD5780140D5780140CF
:101B860093180440B4C806407368094031080C40F5
:101B960052B80E4010581140CFF71340F0A7164028
:101BA600AE4719406DE71B406DE71B408D971E4001
:101BB6004C3721406DE723402B8726404C37294080
:101BC6000AD72B402B872E40E92631400AD73340CF
:101BD600C9763640C9763640E9263940A8C63B4024
:101BE600C9763E4087164140A8C6434066664640D1
:101BF60087164940A8C64B4066664E408716514038
:101C06008716514046B653406666564025065940EB
:101C160046B65B4004565E4025066140E3A5634038
:101C260004566640C3F56840E3A56B40E3A56B40E8
:101C3600A2456E40C3F5704081957340A24576403B
:101C460060E5784081957B403F357E407F6A8040E5
:101C56008FC281406F1283406F1283407F6A844037
:101C66005EBA85403D0A87404E6288402DB2894063
:101C76000C028B40EC518C40FCA98D40DBF98E4068
:101C8600BA499040BA4990409A99914079E9924070
:101C9600894194406891954048E1964027319840A3
:101CA60006819940E5D09A40C5209C40A4709D408D
:101CB600A4709D4083C09E406210A0404260A14037
:101CC60021B0A240CFF7A340AE47A5408D97A640CE
:101CD6006DE7A7404C37A940FA7EAA40FA7EAA4093
:101CE600D9CEAB40B81EAD406666AE4046B6AF40F4
:101CF6002506B140D34DB240B29DB34060E5B44035
:101D06003F35B6401F85B7401F85B740CDCCB8409C
:101D16007B14BA405A64BB4008ACBC40E7FBBD40EC
:101D26009643BF40448BC04023DBC140D122C34011
:101D36007F6AC4407F6AC4405EBAC5400C02C74091
:101D4600BA49C8406891C94017D9CA40F628CC405C
:101D5600A470CD4052B8CE400000D040AE47D1402E
:101D6600AE47D1405C8FD2400AD7D340B81ED5408B
:101D7600986ED64046B6D740F4FDD840A245DA4024
:101D8600508DDB40FED4DC40AC1CDE40AC1CDE409B
:101D96005A64DF4008ACE04085EBE1403333E34072
:101DA600E17AE4408FC2E5403D0AE740EC51E84065
:101DB6009A99E94048E1EA4048E1EA40F628EC40D1
:101DC600A470ED4052B8EE400000F040AE47F1403E
:101DD6002B87F240D9CEF3408716F540355EF640A4
:101DE600E3A5F740E3A5F74091EDF8403F35FA400B
:101DF600EE7CFB409CC4FC404A0CFE40F853FF407E
:101E0600D34D0041AAF10041819501413F35024180
:101E16003F35024117D90241EE7C0341C5200441FA
:101E26009CC40441736805414A0C064121B0064131
:101E3600F8530741E7FB0741BE9F0841BE9F084193
:101E4600964309416DE70941448B0A411B2F0B411B
:101E5600F2D20B41C9760C41A01A0D418FC20D4139
:101E660066660E413D0A0F413D0A0F4114AE0F4111
:101E7600EC511041DBF91041B29D114189411241EB
:101E860060E51241508D134127311441FED41441AF
:101E9600EE7C1541EE7C1541C52016419CC41641C9
:101EA6008B6C17416210184152B81841295C1941D0
:101EB60019041A41F0A71A41DF4F1B41B6F31B4123
:101EC600B6F31B41A69B1C417D3F1D416DE71D419D
:101ED600448B1E4133331F4123DB1F41FA7E2041D1
:101EE600E9262141D9CE2141B0722241B072224168
:101EF600A01A23418FC223417F6A2441560E2541F1
:101F060046B62541355E26412506274114AE2741B2
:101F1600EC512841DBF92841DBF92841CBA12941C5
:101F2600BA492A41AAF12A419A992B4189412C4161
:101F360079E92C4168912D4158392E4148E12E41CD
:101F460037892F4137892F412731304117D9304101
:101F560006813141F6283241E5D03241D578334108
:101F6600DD243441CDCC3441BC743541AC1C364102
:101F7600AC1C36419CC43641A47037419318384195
:101F860083C03841736839417B143A416ABC3A418F
:101F96005A643B414A0C3C4152B83C4152B83C4120
:101FA60042603D4131083E4139B43E41295C3F41E2
:101FB6001904404121B040411058414119044241A1
:101FC60008AC424110584341105843410000444177
:101FD600F0A74441F8534541E7FB4541F0A7464188
:101FE600DF4F4741E7FB4741D7A34841DF4F494110
:101FF600E7FB4941E7FB4941D7A34A41DF4F4B4144
:10200600CFF74B41D7A34C41C74B4D41CFF74D417D
:10201600D7A34E41C74B4F41CFF74F41D7A35041AE
:10202600D7A35041C74B5141CFF75141D7A3524196
:10203600C74B5341CFF75341D7A35441C74B5541E3
:10204600CFF75541D7A35641DF4F5741DF4F574191
:10205600CFF75741D7A35841DF4F5941E7FB5941C5
:10206600D7A35A41DF4F5B41E7FB5B41F0A75C41D9
:10207600F8535D41E7FB5D41E7FB5D41F0A75E413B
:10208600F8535F410000604108AC6041105861415F
:102096001904624108AC6241105863411904644155
:1020A60021B0644121B06441295C65413108664133
:1020B60039B46641426067414A0C684152B868418A
:1020C6005A64694162106A416ABC6A4173686B412D
:1020D60073686B417B146C4183C06C418B6C6D41A2
:1020E60093186E419CC46E41A4706F41AC1C704144
:1020F600B4C87041BC747141C5207241C52072419B
:10210600CDCC7241D5787341DD247441E5D074415C
:10211600EE7C7541F6287641FED4764106817741FC
:102126000E2D78412FDD78412FDD784137897941B1
:102136003F357A4148E17A41508D7B4158397C419F
:1021460060E57C4181957D4189417E4191ED7E41ED
:102156009A997F419A997F41D1228041D5788041D1
:10216600E5D08041E9268141EE7C8141F2D2814170
:10217600F6288241068182410AD782410E2D83418B
:102186000E2D83411283834123DB83412731844112
:102196002B8784412FDD84413F358541448B854122
:1021A60048E18541583986415C8F86415C8F86417E
:1021B60060E58641643B87417593874179E98741AC
:1021C6007D3F88418D97884191ED884196438941AD
:1021D600A69B8941AAF18941AAF18941AE478A4164
:1021E600BE9F8A41C3F58A41D34D8B41D7A38B410C
:1021F600DBF98B41EC518C41F0A78C41F4FD8C410D
:1022060004568D4104568D4108AC8D4119048E410A
:102216001D5A8E412DB28E4131088F41355E8F4158
:1022260046B68F414A0C90415A6490415EBA90413D
:102236005EBA90416F1291417368914177BE9141A8
:10224600871692418B6C92419CC49241A01A93418D
:10225600B0729341B4C89341C5209441C5209441BE
:10226600C9769441D9CE9441DD249541EE7C9541C1
:10227600F2D29541022B96410681964117D9964195
:102286001B2F97412B8797412B8797412FDD97412E
:102296003F359841448B984154E39841643B9941BA
:1022A6006891994179E999417D3F9A418D979A4183
:1022B60091ED9A4191ED9A41A2459B41A69B9B4186
:1022C600B6F39B41C74B9C41CBA19C41DBF99C419A
:1022D600DF4F9D41F0A79D4100009E4104569E415F
:1022E60004569E4114AE9E4119049F41295C9F41AC
:1022F6002DB29F413D0AA0414E62A04152B8A04175
:102306006210A1416666A14177BEA14177BEA14197
:102316008716A2418B6CA2419CC4A241AC1CA3416E
:10232600B072A341C1CAA341C520A441D578A44136
:10233600E5D0A441E926A541E926A541FA7EA541B5
:102346000AD7A5410E2DA6411F85A64123DBA6412E
:102356003333A741448BA74148E1A7415839A841E7
:102366006891A8416891A8416DE7A8417D3FA941C0
:102376008D97A94191EDA941A245AA41A69BAA41E3
:10238600B6F3AA41C74BAB41CBA1AB41DBF9AB419D
:10239600DBF9AB41EC51AC41F0A7AC410000AD41DB
:1023A6001058AD4114AEAD412506AE41355EAE4185
:1023B60039B4AE414A0CAF415A64AF415A64AF4199
:1023C6005EBAAF416F12B0417F6AB04183C0B0417F
:1023D6009318B141986EB141A8C6B141B81EB24139
:1023E600BC74B241CDCCB241CDCCB241DD24B341B7
:1023F600E17AB341F2D2B341022BB4410681B44132
:1024060017D9B4412731B5412B87B5413BDFB541DB
:102416003F35B6413F35B641508DB64160E5B641D0
:10242600643BB7417593B74185EBB7418941B841E4
:102436009A99B8419EEFB841AE47B9417DFFC74270
:0824460036014A015E0172013A
:02244E004F0D30
:02245000FFFF8C
:0224520019006F
:012454000186
:01245500077F
:01245600FF86
:02000004008278
:090000000040020000C8070000E6
:00000001FF
